:1000000009C00EC00DC00CC00BC00AC009C008C09A
:1000100007C006C011241FBECFE9CDBF2BD070C0D2
:10002000EFCFFC0140E050E120E030E060E8862FB7
:100030008A95F1F7CA018E239F23892B09F0C39A71
:10004000862F8A95F1F7C39A862F8A95F1F7C39880
:10005000569547952F5F3F4F2D30310541F7089555
:10006000C19A80E395E7FC013197F1F7C1980197B8
:10007000F1F70895CF92DF92EF92FF921F93CF9303
:10008000DF938AE087BB81E088BBEADFE9DFE8DF56
:1000900020ECE22E22E1F22E98E9C92E9AE3D92E25
:1000A000B099FECFDDDFC1E0D0E0B09BFECFCE0146
:1000B000B8DFC7010197F1F7CE01B3DFC7010197A0
:1000C000F1F7CE01AEDFC7010197F1F7CE01A9DF4D
:1000D000C7010197F1F7CE018F719070892B29F438
:1000E000C19AC6010197F1F7C198219680E1C0300D
:1000F000D807D9F610E0B4DF1F5F1830E1F7D0CF92
:04010000F894FFCFA1
:00000001FF
